:0600000049C09AC0AEC029
:10000600FCCFFBCFFACFF9CFF8CFF7CFDDC0F5CFD6
:10001600F4CFF3CFF2CFF1CFF0CFEFCFEECFEDCFDE
:100026003F0006005B004F0066006D007D00070084
:100036007F006F003E003100380033002700370094
:1000460071007700000076003000FE00EF00DF0050
:100056003F0226021202620172018C011E004B0051
:10006600F000C0036009001E000000000000290027
:10007600680126000C009201560005009E016200F0
:100086000600A4016800060004006E000000F89453
:10009600EE27ECBBF1E0FBBFEBBFE5BFF8E1F1BD3E
:1000A600E1BD8DE0A2E0BB27ED938A95E9F780E0FC
:1000B60094E0A0E6ED930197E9F7E4E7F0E0859197
:1000C6009591009761F0A591B59105901590BF01A6
:1000D600F00105900D920197E1F7FB01F0CFEFE5F6
:1000E600EDBFE4E0EEBFC0E6D1E0E4C0E881E7B9E9
:1000F60083E08A95F1F7369A349BFECF349AE4B1C1
:10010600F5B121960895E199FECFE981FA81FFBB09
:10011600EEBBE881EDBBE29AE19A23960895E19958
:10012600FECFE881F981FFBBEEBBE09AEDB32296E4
:10013600089517D282990FC0F30131963F01319786
:10014600EFEFF0E04F01E4E0F0E06E167F0618F006
:1001560066247724F1CF17D26A9227C002D28399F8
:1001660022C016D219F4882499241DC0A99AAA9AE5
:10017600AB9AF20131962F0110D212D211F4A9983E
:1001860012C011D20DD211F4AA980DC0E3E0F0E02E
:1001960007D211F4AB9807C0E4E0F0E001D219F4FD
:1001A60044245524DECF02D24A92ADDFE991EFBF57
:1001B600F991E991B991A991999189917991699169
:1001C600F990199009901895EA93FA93EFB7EA9384
:1001D600E0E0E3BFE6E0E2BFF50131965F01E5E06E
:1001E600E3BFE991EFBFF991E9911895AA24BB24E1
:1001F600E5E001C0E0E0E3BFE6E0E2BF0895E881A4
:10020600F981309721F4959A949A909813C0E13029
:10021600A0E0FA0721F4959A909A94980BC0E230E0
:10022600A0E0FA0721F4909A949A959803C0909AC0
:10023600949A959AEA81FB81A8E6B1E0BBD1EC914C
:10024600E095E8BB24960895BAD1E4E6F0E05ED2E4
:10025600BBD1C1D1B4D1C3D159D2DF01C0D169D28A
:10026600B3D1A4D1CCDFABD1BAD163D2ADD18BD1CE
:10027600C6DF0895B7D1BCD1A034E0E0BE0740F494
:10028600E0E0EA9333DFCE0EDF1EDEDFB6D1F3CF3A
:10029600D601E0E4F0E03AD26F01F601AAE0B0E060
:1002A6002DD2DF01E6E1F0E031D2E0936601F09372
:1002B60067010895EFEFE8BBE7BBEEE7E5BBE4BBFC
:1002C600E1EFE2BBE3EFE1BBE0E0E3BFE2BFEFBD9E
:1002D600EEBDEDBDECBDE7BDE6BDEBBDEABDE9BDDE
:1002E600E8BDE2BDE5BDE4BDE3BD8FD1EAE0E5BF13
:1002F600E0ECEABFE1E0E9BFE0E8E8B9E0E0E0BF52
:10030600E7B9E9E8E6B9789484D13DD108DF6E2EE5
:1003160077244CD104DF4E2E55243FD141D111F420
:10032600A9980AC040D13CD111F4AA9805C0E3E0CF
:10033600F0E036D109F4AB98919854D16ED118F407
:1003460071D15BD1FBCFE0E0E0936201E093630102
:10035600A0916201B0916301129708F048C042D1A2
:100366005CD128F464D10FD14ADF47D1F9CF3AD115
:1003760054D130F45CD11AD15FD141DF3ED1F8CFF0
:1003860031D14BD150F453D126D15CD10FD137DFC7
:100396005ED1F9D034DF31D1F4CF24D13ED140F44F
:1003A60051D119D154D102D147D129DF26D1F6CF67
:1003B60019D133D138F44BD10ED144D1F7D01FDF48
:1003C6001CD1F7CF0FD129D120F43CD104D115D1BE
:1003D600FACF08D122D118F425D10FD1FBCFA2E64E
:1003E600B1E0ED91FD913196FE93EE93B1CFFEDE35
:1003F60033D135D137D145D147D118F0FBDE05D100
:1004060001C0F6CFC5D009F49AC034DF41D194D1EA
:1004160044D120F400240814090409F005C0919879
:10042600AC9AF7D0E3DE19C03BD137D120F00024D7
:100436000814090409F005C09198AC9AEAD0D6DEF2
:1004460046C0919AAC98CED0D3D0AD3AEDE0BE0777
:1004560018F4FADED2D0F8CFD5CFC4D028D198F48C
:100466002BD118F0AD9AC6DE01C0AD98DBD0E3E122
:10047600F0E027D19BD0C3DEE4E1F0E022D183D0C7
:10048600BEDEBBD0EBCFAD9AF5DEACD01DD118F4F5
:10049600DBDEB3D0FBCFFCD04FD13A97FED0E8F2EB
:1004A600A5DEF6D049D13A97F8D0B8F2D5D0D7D054
:1004B600D9D0E7D0E9D020F09DDEA7D00AD1A2CFCF
:1004C600CBD0DFD00AD110F0D5DEEBCFEACF8AD081
:1004D600EED098F4F1D018F0AD9A8CDE01C0AD984C
:1004E600ECE0F0E0EED077D04ED060D088DE77D06A
:1004F600E8D049D084DE81D0EBCFAD9ABBDE72D096
:10050600E3D018F4A1DE79D0FBCFCAD03A96C5D095
:10051600F0F66CDEC5D03A96C0D0C8F69DD09FD016
:10052600A1D0AFD0B1D020F065DE6FD0D2D06ACFE7
:1005360093D0A7D0D2D010F09DDEECCFEBCF082C15
:10054600092809F45FCFEDE0F0E0BBD044D0EEE03F
:10055600F0E0B7D02BD053DE7A926A9214D04FDEF9
:10056600EECF0A921A92FA926A937A938A939A93A0
:10057600AA93BA93EA93FA93EFB7EA93E8E2F0E024
:10058600FA93EA93AFC0E0E0F0E0FA93EA930895B5
:10059600EFEFF0E0E815F9050895E1E0F0E00895E1
:1005A600E415F5050895E2E0F0E00895F6DFFA9324
:1005B600EA930895EE0FFF1FAE0FBF1F0895A09197
:1005C6006601B09167010895E0936401F0936501B7
:1005D600FA93EA930895E7DFFA93EA9310CEEAE0F6
:1005E600F0E00895E0E0E0936001E0936101089592
:1005F600A0916001B09161010895A0E6B1E0ED918E
:10060600FD913196FE93EE930895EBB7E06CEBBF48
:100616000895EBB7EF73EBBF0895EADFA135E6E483
:10062600BE070895E2E1F0E0FA93EA93D4CFE0E161
:10063600F0E0FA93EA930895E2DDE1E1F0E0FA935F
:10064600EA93A1CFE1E1F0E0FA93EA930895EBE0B3
:10065600F0E0FA93EA930895F20131970895AEE92E
:10066600B1E0A8CF6D917C91D501E0E2F0E04ED0EB
:10067600DB01AE1BBF0BA0936601B0936701E4DDFF
:10068600EBCFA4EAB1E096CF57D0AE16BF060895D9
:10069600F3013197A2E9B1E08DCFEC15FD05089580
:1006A600D301AA0FBB1FAA56BE4F46D00895A0DF9E
:1006B600A936E2E4BE070895E8EFF2E0AE16BF06FB
:1006C6000895FA93EA93089593DFA93BEBE0BE07FA
:1006D6000895E4E6F0E0F5DF05C02ED0F297AE16F9
:1006E600BF060895E991F991309639F08AEF90E0C6
:1006F6000197F1F7A8953197C9F70895FA9FF02D5C
:10070600EB9FF00DEA9FE02DF10D089500241124D2
:1007160090E1AA0FBB1F001C111C0E1A1F0A18F429
:100726000E0E1F1E01C0A1609A9599F7FD01D0011A
:100736000895ECDFFD010895ED91FC911197089560
:00000001FF
